:020000040800F2
:10000000900500200101000815290008B525000809
:10001000F52700088F080008BD3300080000000025
:10002000000000000000000000000000A5290008FA
:10003000E10800080000000019290008D92900087B
:100040001B0100081B0100081B0100081B01000820
:100050001B0100081B0100081B0100081B01000810
:100060001B0100081B0100081B0100081B01000800
:100070001B0100081B0100081B010008A50800085F
:100080001B0100081B0100081B0100081B010008E0
:100090001B0100081B0100081B0100081B010008D0
:1000A0001B0100081B0100081B0100081B010008C0
:1000B0001B0100081B0100081B0100081B010008B0
:1000C0001B0100081B0100081B0100081B010008A0
:1000D0001B010008AD3300081B0100081B010008CC
:1000E0001B0100081B0100081B010008DFF80CD0F1
:1000F00000F09AFB00480047093D000890050020E9
:100100000648804706480047FEE7FEE7FEE7FEE7B1
:10011000FEE7FEE7FEE7FEE7FEE7FEE7472A000808
:10012000ED000008202A04DB203A21FA02F0002129
:10013000704721FA02F3D040C2F1200291400843F7
:1001400019467047D2B201E000F8012B491EFBD2DC
:1001500070470022F6E710B513460A4604461946D2
:10016000FFF7F0FF204610BDF0B480EA0102D40F83
:100170004200B2EB410F02D20246084611464A0045
:1001800042D0C30DDDB2C1F3C752AD1A202D35DA0E
:10019000C1F3160141F4000204B15242C5F1200638
:1001A00002FA06F12A411044B3EBD05F23D0C4B168
:1001B000012DA0EBC35009DCF0BC4FF0004202EA75
:1001C000C352DBB200F5000000F0CCB9400000F1F2
:1001D000807000EBC350A0F1807040EAD1704900FC
:1001E00009E0490841EAC071A0EBC35000F50000E6
:1001F000400800EBC350F0BC00F0ABB961420122F3
:1002000002EB4101001BF6E7F0BC704781F00041B2
:10021000AAE780F00040A7E780EA010210B502F0EB
:100220000043400022D04A001FD0010E01EB1261B2
:10023000C0F35600C2F3560240F4000042F400023C
:10024000A0FB022000047F39140400D0401C50EAB7
:10025000124001D44000491EC2B20C0604EBD0107B
:10026000401C4008802A02D003E0002010BD20F08E
:100270000100002900DA0020184310BD2DE9FE4FCF
:1002800081EA030404F0004421F0004100944FF09F
:10029000000B23F0004350EA01045ED052EA03044D
:1002A0005BD0C3F30A54C1F30A552C44A4F2F334CF
:1002B0000194A0FB0254C1F3130141F48011C3F374
:1002C000130343F4801301FB024400FB034E840A32
:1002D000970A44EA815447EA8357A4FB07680295CA
:1002E0008D0A05FB07854FEA932C04FB0C54270568
:1002F000029D4FEA065847EA1637B5EB08056EEB44
:10030000070C870E920E47EA811742EA8312A7FB79
:100310000201B6EB0B0164EB00042B0D43EA0C3336
:100320005E1844EB1C50DA465146E7FB0201C5F368
:1003300013044FEA0B3343EA14534FEA0432019C8F
:1003400043EA0603A4F10C040294009CCDE900B436
:1003500000F045F903B0BDE8F08F00200146F9E751
:100360002DE9F04D81EA030404F0004B21F0004533
:1003700014464FF0000A23F0004150EA050220D055
:1003800054EA01021DD0C5F30A570246C5F3130310
:10039000C1F31300C1F30A5640F4801543F48013EF
:1003A000A7EB0608101BD64608F2FD3873EB0500D4
:1003B00002D308F1010801E092185B41B8F1000F87
:1003C00003DA00200146BDE8F08D00204FF48011D3
:1003D000064684460EE0171B73EB050705D3121B78
:1003E00063EB050306434CEA010C49084FEA300071
:1003F00092185B4150EA0107EDD152EA030012D096
:1004000082EA040083EA0501084305D0101BAB41D2
:1004100006D20122002306E000224FF0004302E052
:100420006FF0010253101AEB06004CEB085110EB71
:100430000A0041EB0B01BDE8F04D00F0C1B8C10F5F
:1004400080EAE0700844CA079623002100F08AB8C9
:1004500000F0004230F000400AD0C10D01F560719B
:10046000C0F3160042EA0151C20840071143704729
:1004700000200146704701F0004330B421F00041F4
:1004800050EA010206D00A0DA2F56072C1F3130111
:10049000002A02DC30BC00207047440F44EAC1044B
:1004A000C100E01830BC00EBC25000F052B80000B0
:1004B000002801DBC0F10040002901DBC1F100414F
:1004C0008142704730B50B460146002020220124AE
:1004D00009E021FA02F59D4205D303FA02F5491B12
:1004E00004FA02F52844151EA2F10102F1DC30BD28
:1004F0002DE9F05F0546002092469B468846064659
:10050000814640241BE02846414647462246FFF7E5
:1005100009FE53465A46C01A914110D31146184657
:10052000224600F093F92D1A67EB01084F46224648
:100530000120002100F08AF917EB00094E41201E2E
:10054000A4F10104DFDC484631462A464346BDE8B3
:10055000F09F0029A8BF7047401C490008BF20F049
:100560000100704710B4B0FA80FC00FA0CF050EAB9
:10057000010404BF10BC704749B1CCF1200421FA3A
:1005800004F411FA0CF118BF012121430843A3EB35
:100590000C01CB1D4FEA00614FEA102042BF002042
:1005A00010BC704700EBC35010440029A4BF10BC1E
:1005B0007047401C490008BF20F0010010BC704784
:1005C00010B5141E73F1000408DA401C41F100015B
:1005D00092185B411A4301D120F0010010BD2DE9B2
:1005E000F04D92469B4611B1B1FA81F202E0B0FAA9
:1005F00080F22032904600F029F904460F4640EA86
:100600000A0041EA0B0153465A46084313D01146EB
:1006100053EA010019D0C8F140025046FFF782FDAD
:1006200005460E4650465946424600F00FF908432B
:1006300005D0012004E020463946BDE8F08D0020B9
:10064000054346EAE0762C4337430A986305E40AFB
:10065000A0EB08000022FD0A44EA47540A3002D504
:1006600000200146E9E7010510196941DDE9084567
:1006700000196941BDE8F04DA2E72DE9FE4F804623
:1006800081EA0300C00F0C46009021F0004123F0E6
:100690000045B8EB0200A94105D2404621469046EC
:1006A0001C460B46024623F00040104347D0270D5E
:1006B000C7F30A00C3F30A510290401A0190402880
:1006C0006BDAC3F3130040F4801B0098924620B10C
:1006D0000023D2EB030A63EB0B0B01985946C0F1E0
:1006E0004002504600F0B2F806460D4650465946C4
:1006F000019A00F0BAF810EB08006141002487EA83
:10070000115284EAE7731A4340D0009A62B3019A07
:10071000012A4FEA075215DC001B61EB02014FF082
:10072000004202EA0752CDE90042001C41F5801167
:1007300032462B46FFF753FF03B0BDE8F08F40462B
:100740002146F9E7001B61EB0201001C41F5801313
:1007500000185B412018A2F5001747EB030140EA9F
:10076000D570B6196D4111E06D084FEA360645EABD
:10077000C0754FEA0752001B61EB0201001C41F5F6
:10078000801149084FEA30000019514132462B468A
:1007900003B0BDE8F04FFFF713BF009801224000FF
:1007A0000023D0EB020263EBE073009821464FEA8E
:1007B000E074B8EB000061EB0401E9E783F000436B
:1007C0005BE781F0004158E7C1F30A52C1F313011E
:1007D00040F2FF3341F480119A4202DA00200146D0
:1007E000704740F233439A42A2F2334202DC524253
:1007F000FFF798BC00F02AB830B5041E71F1000470
:1008000004DB4FF00044404264EB0101141E73F11D
:10081000000405DB1C464FF00043524263EB040327
:10082000994208BF904230BD064C074D06E0E06893
:1008300040F0010394E8070098471034AC42F6D327
:10084000FFF758FC643D0008843D0008202A04DBC3
:10085000203A00FA02F1002070479140C2F12003D3
:1008600020FA03F3194390407047202A06DBCB1788
:10087000203A41FA02F043EAE07306E041FA02F35B
:10088000D040C2F12002914008431946704700BF92
:10089000FEE710B5002001F0AFFF002001F0E2FFFD
:1008A00010BD000010B5024800F0C4F810BD0000F3
:1008B0003801002030B590F840500124AC40C56BA1
:1008C0006C60046863604468102C04D10468A26002
:1008D0000468E16003E00468A1600468E26030BD80
:1008E0007047000010B505220249034801F064FB7F
:1008F00010BD000010000020F000002072B600BF04
:10090000FEE710B541F2883001F076FF41F2883001
:1009100001F0A8FF10BD000010B5034801F06CFF06
:10092000014801F09FFF10BD78ECFFFF0146002257
:1009300091F82100022808D00420886300BF00201D
:1009400081F8200000BF012070470868006820F08F
:100950000E000B6818600868006820F001000B6842
:10096000186091F8403001209840CB6B586001200E
:1009700081F8210000BF002081F8200000BF104650
:10098000E2E7000070B50446002594F82100022833
:1009900003D00420A063012548E02068006820F00F
:1009A0000E00216808602068006820F001002168BE
:1009B00008601F492068884201D1012026E01C49B7
:1009C00014312068884201D110201FE018492831D5
:1009D0002068884201D1801518E015493C31206813
:1009E000884201D1801411E01149503120688842B9
:1009F00002D14FF4803009E00D496431206888420B
:100A000002D14FF4801001E04FF08070084908399E
:100A10004860012084F8210000BF002084F82000F5
:100A200000BF606B10B12046616B8847284670BDDF
:100A30000800024070B50446E06B0568206806684F
:100A400094F84010042088402840002846D006F042
:100A50000400002842D02068006800F0200028B977
:100A60002068006820F00400216808605749206869
:100A7000884201D1042027E054491431206888427B
:100A800001D1402020E0514928312068884201D11D
:100A9000001519E04D493C312068884202D14FF4DD
:100AA000804011E0494950312068884202D14FF41A
:100AB000802009E0454964312068884202D14FF422
:100AC000800001E04FF08060404908394860E06AEA
:100AD00000287AD02046E16A884776E094F84010F2
:100AE000022088402840A0B306F0020088B32068A6
:100AF000006800F0200040B92068006820F00A007B
:100B000021680860012084F821003049206888426B
:100B100001D1022028E02D4914312068884201D1FA
:100B2000202021E0294928312068884201D1401540
:100B30001AE026493C312068884202D14FF4005027
:100B400012E0224950312068884203D14FF400302E
:100B50000AE017E01D4964312068884202D14FF451
:100B6000001001E04FF0007018490839486000BFDC
:100B7000002084F8200000BFA06A30B32046A16A9C
:100B8000884722E094F84010082088402840E0B1CF
:100B900006F00800C8B12068006820F00E00216847
:100BA000086094F8401001208840E16B4860012003
:100BB000A06384F8210000BF002084F8200000BF5B
:100BC000206B10B12046216B884770BD08000240A1
:100BD0000146002209B901207047164B0868C01A67
:100BE0001423B0FBF3F08000086412480838C8638F
:100BF000022081F821000868026843F6F070824301
:100C0000D1E901031843CB6818430B6918434B69BA
:100C100018438B691843CB69184302430868026084
:100C200000208863012081F82100002081F8200045
:100C300000BFD1E7080002402DE9F04104460D460F
:100C400016461F464FF0000800BF94F82000012808
:100C500002D10220BDE8F081012084F8200000BF0D
:100C600094F8210001282CD1022084F821000020D2
:100C7000A0632068006820F00100216808603B46FE
:100C8000324629462046FFF715FEE06A30B120685B
:100C9000006840F00E00216808600BE020680068E2
:100CA00020F00400216808602068006840F00A0015
:100CB000216808602068006840F001002168086031
:100CC00006E000BF002084F8200000BF4FF00208BB
:100CD0004046BFE72DE9F8470346002294466EE1FF
:100CE0004FF0010808FA02F4D1F8008008EA040085
:100CF000A0427DD1DFF8DCA2D1F80480A8EB0A097C
:100D0000D0453AD014DCB8F1030F50D009DCB8F16B
:100D1000000F31D0B8F1010F1CD0B8F1020F49D14A
:100D200020E0B8F1110F18D0B8F1120F42D11EE037
:100D3000B9F5881F25D006DCB9F5803F20D0B9F57C
:100D4000801F37D11AE0B9F5001F18D0B9F5041F7C
:100D500030D117E0D1F80CC02DE0D1F80C8008F1AB
:100D6000040C28E0D1F80C8008F1080C23E0D1F83D
:100D70000C8008F10C0C1EE000BF00BF00BF00BFDC
:100D800000BF00BFD1F80880B8F1000F02D14FF0CA
:100D9000040C0BE0D1F80880B8F1010F03D14FF03B
:100DA000080C1C6102E04FF0080C5C6103E04FF09E
:100DB000000C00E000BF00BFFF2801D8984601E00A
:100DC00003F104084646FF2802D84FEA820803E0F0
:100DD000A2F108084FEA88084746D6F800804FF08D
:100DE0000F0909FA07F928EA09080CFA07F900E0DF
:100DF00088E048EA0908C6F80080D1F8048008F0C5
:100E00008058B8F1805F7DD100BFDFF8CC81D8F881
:100E1000188048F00108DFF8C091C9F81880C8466A
:100E2000D8F8188008F00108CDF8008000BF00BF96
:100E30004FEAB9384FEA920958F829504FEA8278B8
:100E40004FEA18794FF00F0808FA09F825EA080563
:100E5000DFF88881434502D14FF0000816E0DFF843
:100E60008081434502D14FF001080FE0DFF8748123
:100E7000434502D14FF0020808E0DFF86C8143459A
:100E800002D14FF0030801E04FF004084FEA8279E5
:100E90004FEA197908FA09F848EA0505DFF84C81A4
:100EA0004FEA920948F82950D1F8048008F48018D4
:100EB000B8F5801F0AD1DFF83881D8F8008048EAF9
:100EC0000008DFF82C91C9F8008009E0DFF82081E4
:100ED000D8F8008028EA0008DFF81491C9F80080EB
:100EE000D1F8048008F40018B8F5001F10D1DFF81D
:100EF000008108F10408D8F8008048EA0008DFF80B
:100F0000F09000E05AE009F10409C9F800800DE012
:100F1000DFF8DC8008F10408D8F8008028EA00082F
:100F2000DFF8CC9009F10409C9F80080D1F80480F9
:100F300008F40038B8F5003F0ED1DFF8B480A8F10E
:100F40000408D8F8008048EA0008DFF8A490A9F166
:100F50000409C9F800800DE0DFF89480A8F10408C6
:100F6000D8F8008028EA0008DFF88490A9F1040985
:100F7000C9F80080D1F8048008F48038B8F5803FC3
:100F80000ED1DFF86C80A8F10808D8F8008048EA94
:100F90000008DFF85C90A9F10809C9F800800DE0AD
:100FA000DFF84C80A8F10808D8F8008028EA00088B
:100FB000DFF83C90A9F10809C9F80080521CD1F86B
:100FC000008028FA02F8B8F1000F7FF489AEBDE87E
:100FD000F8870000000011100010024000080140D6
:100FE000000C0140001001400014014008000140C5
:100FF00008040140024693680B400BB1012000E059
:101000000020704710B5C26821EA020302EA010419
:1010100043EA0443036110BD0AB1016101E00B041E
:10102000036170470148006870470000000000201D
:1010300070B504460CB9012070BD94F83D0028B984
:10104000002084F83C00204600F0DAF8242084F8E0
:101050003D002068006820F00100216808602068D9
:10106000006840F40040216808602068006820F4AF
:1010700000402168086000F09BFA05465C49606802
:10108000884206D85B48854201D2012007E0002053
:1010900005E05948854201D2012000E000200128E6
:1010A00000D1C9E75548B5FBF0F62068406820F04C
:1010B0003F003043216848604D496068884201D84C
:1010C000701C07E04FF4967070434FF47A71B0FBD8
:1010D000F1F0401C2168096A21F03F0108432168B2
:1010E000086243496068884214D8681E61684900F4
:1010F000B0FBF1F0401CC0F30B00042801D2042027
:101100003DE0681E61684900B0FBF1F0401CC0F38F
:101110000B0034E0A06838B9681E616801EB41013A
:10112000B0FBF1F0401C0AE0681E616801EBC102EF
:1011300002EB0111B0FBF1F0401C40F48040C0F321
:101140000B0008B901201AE0A06848B9681E616860
:1011500001EB4101B0FBF1F0401CC0F30B000CE0CF
:10116000681E616801EBC10202EB0111B0FBF1F0F6
:10117000401CC0F30B0040F4804040F40040216864
:10118000C9694CF6FF72914308432168C861D4E9EC
:10119000070108432168096821F0C001084321685C
:1011A0000860D4E9031008432168896848F2FF32D7
:1011B0009143084321688860D4E905010843216808
:1011C000C96821F0FF0108432168C86020680068F1
:1011D00040F001002168086000202064202084F88D
:1011E0003D000020206384F83E0000BF24E700009B
:1011F000A086010080841E0000093D0040420F00CF
:1012000010B586B00446002002900390049005902B
:1012100015492068884225D100BF1448806940F0F4
:101220000800124988610846806900F008000190B2
:1012300000BF00BFC0200290122003900320059041
:1012400002A90B48FFF746FD00BF0848C06940F4FB
:1012500000100649C8610846C06900F400100190FA
:1012600000BF00BF06B010BD005400400010024097
:10127000000C01400348006803490978084401490B
:1012800008607047000000200800002010B50848E2
:10129000006840F0100006490860032000F0A8F83C
:1012A0000F2000F007F800F02BF8002010BD000020
:1012B0000020024070B504460E4800784FF47A7161
:1012C000B1FBF0F00C490968B1FBF0F5284600F0DD
:1012D000F9FB08B1012070BD102C07D20022214675
:1012E000501E00F047F80548046001E00120F2E7D5
:1012F0000020F0E7080000200C000020040000207F
:1013000008B500BF1148806940F001000F498861AD
:101310000846806900F00100009000BF00BF00BFD8
:101320000846C06940F08050C8610846C06900F0B6
:101330008050009000BF00BF00BF0549486820F002
:10134000E06040F00070486000BF08BD001002403F
:101350000000014001460846002809DB00F01F0399
:1013600001229A4043099B0003F1E023C3F80021C6
:1013700000BF70472DE9F05F80460D4616460027F6
:1013800002F02EF8074639462A46334601F0070098
:10139000C0F1070ABAF1040F02D94FF0040A01E0C4
:1013A000C0F1070AD14600F1040ABAF1070F02D2D0
:1013B0004FF0000A01E0A0F1030AD4464FF0010A01
:1013C0000AFA09FAAAF1010A0AEA020A0AFA0CFA66
:1013D0004FF0010B0BFA0CFBABF1010B0BEA030B0B
:1013E0004AEA0B042146404602F002F8BDE8F09FAD
:1013F00000BF00F00702064B19684FF6FF031940C3
:10140000044B0B4343EA0221014B196000BF7047B4
:101410000CED00E00000FA0570B504460D460CB96D
:10142000012070BD5A48006800F00700A8420ED2A3
:101430005748006820F007002843554908600846CF
:10144000006800F00700A84201D00120E9E72078F9
:1014500000F0020002281DD1207800F004000428CA
:1014600005D14C48406840F4E0604A494860207823
:1014700000F00800082805D14648406840F4605054
:10148000444948604348406820F0F000A1680843A0
:1014900040494860207800F0010078B36068012876
:1014A00006D13C48006800F4003090B90120B8E74C
:1014B0006068022806D13748006800F0007040B923
:1014C0000120AEE73348006800F0020008B90120AF
:1014D000A7E73048406820F00300616808432D49C1
:1014E0004860FFF79FFD064609E0FFF79BFD801B64
:1014F00041F28831884202D9032092E707E025486B
:10150000406800F00C006168B0EB810FEDD120481D
:10151000006800F00700A8420ED91D48006820F0BE
:10152000070028431A4908600846006800F00700D1
:10153000A84201D0012074E7207800F004000428BC
:1015400007D11448406820F4E060E168084311497D
:101550004860207800F00800082808D10D4840684D
:1015600020F46050216940EAC1000A49486000F057
:101570003FF808494968C1F30311074A515CC84064
:101580000649086006480068FFF794FE002048E717
:1015900000200240001002404A3D00080C000020DC
:1015A0000400002001480068704700000C00002083
:1015B00000B5FFF7F7FF04494968C1F30221034A68
:1015C000515CC84000BD0000001002405A3D0008B8
:1015D00000B5FFF7E7FF04494968C1F3C221034A98
:1015E000515CC84000BD0000001002405A3D000898
:1015F00070B500210022002400230020134D6968EB
:1016000001F00C05F5B1042D02D0082D19D101E02F
:101610000F4819E00F4DC1F38346AB5D01F48035EF
:1016200055B10A4D6D68C5F340450B4E725D084DCE
:101630005D43B5FBF2F402E0084D03FB05F42046E0
:1016400002E000BF024800BF00BF70BD00100240B2
:1016500000127A00383D0008483D000800093D00AE
:10166000F8B504460CB90120F8BD207800F001005F
:10167000002878D0F848406800F00C0004280CD00E
:10168000F548406800F00C00082811D1F248406885
:1016900000F48030B0F5803F0AD1EF48006800F4D4
:1016A000003000285FD0606800285CD10120DBE7B3
:1016B00000BF6068B0F5803F06D1E748006840F49D
:1016C0008030E549086028E0606858B9E248006861
:1016D00020F48030E04908600846006820F480204B
:1016E00008601AE06068B0F5A02F0BD1DA480068F6
:1016F00040F48020D84908600846006840F48030F3
:1017000008600AE0D448006820F48030D2490860BC
:101710000846006820F48020086000BF606888B137
:10172000FFF780FC054606E0FFF77CFC401B6428C1
:1017300001D9032098E7C848006800F40030002869
:10174000F2D010E0FFF76EFC054606E0FFF76AFCFA
:10175000401B642801D9032086E7BF48006800F4D5
:1017600000300028F2D1207800F00200022857D182
:10177000B948406800F00C0050B1B748406800F02C
:101780000C00082818D1B448406800F4803098B99B
:10179000B148006800F0020020B12069012801D0A2
:1017A000012061E7AC48006820F0F800616940EA78
:1017B000C100A949086033E02069E8B10120A749C8
:1017C0000860FFF72FFC054606E0FFF72BFC401BE7
:1017D000022801D9032047E79F48006800F0020073
:1017E0000028F2D09C48006820F0F800616940EAC7
:1017F000C1009949086013E0002098490860FFF78C
:1018000011FC054606E0FFF70DFC401B022801D93C
:10181000032029E79048006800F002000028F2D178
:10182000207800F0080008282DD1A069B8B1012067
:101830008B490860FFF7F6FB054606E0FFF7F2FB71
:10184000401B022801D903200EE78348406A00F0BC
:1018500002000028F2D0012001F090F813E00020EF
:101860007F490860FFF7DEFB054606E0FFF7DAFB7D
:10187000401B022801D90320F6E67748406A00F0B1
:1018800002000028F2D1207800F00400042873D16F
:1018900000277148C06900F0805070B900BF6E48E1
:1018A000C06940F080506C49C8610846C06900F0CA
:1018B0008050009000BF00BF01276A48006800F414
:1018C0008070B0B96748006840F48070654908606E
:1018D000FFF7A8FB054606E0FFF7A4FB401B6428C2
:1018E00001D90320C0E65F48006800F4807000283A
:1018F000F2D000BFE068012806D15748006A40F0E6
:1019000001005549086227E0E06858B95248006A6A
:1019100020F00100504908620846006A20F00400E7
:10192000086219E0E06805280BD14B48006A40F0D6
:101930000400494908620846006A40F00100086254
:101940000AE04548006A20F0010043490862084661
:10195000006A20F00400086200BFE068A0B1FFF751
:1019600061FB054609E0FFF75DFB401B41F2883152
:10197000884202D9032077E622E03748006A00F067
:1019800002000028EFD012E0FFF74CFB054608E00C
:10199000FFF748FB401B41F28831884201D9032000
:1019A00062E62D48006A00F002000028F0D1012F05
:1019B00005D12948C06920F080502749C86100BF7F
:1019C000E069C8B32448406800F00C00082860D0E3
:1019D000E069022848D1002020490866FFF722FB71
:1019E000054606E0FFF71EFB401B022801D9032035
:1019F0003AE61948006800F000700028F2D1206A29
:101A0000B0F5803F07D11448406820F40030A16849
:101A1000084311494860D4E9080108430E49496860
:101A200021F4741108430C49486001200B490866F1
:101A3000FFF7F8FA054607E03DE0FFF7F3FA401B31
:101A4000022801D903200FE60348006800F0007067
:101A50000028F2D02FE000000010024000004242B7
:101A60008004424200700040002014490866FFF7DD
:101A7000D9FA054606E0FFF7D5FA401B022801D93E
:101A80000320F1E50E48006800F000700028F2D154
:101A900011E0E069012800D1E6E50948466806F44E
:101AA0008031206A814204D106F47011606A81425B
:101AB00001D00120D8E50020D6E500000000424218
:101AC0000010024070B504462546681EB0F1807FC4
:101AD00001D301200FE0681E4FF0E02148610F2183
:101AE0004FF0FF3001F084FC00204FF0E0218861CE
:101AF00007200861002070BD30B502460B4600BFCC
:101B000092F83C00012801D1022030BD012082F86A
:101B10003C0000BF022082F83D0010684468106855
:101B2000816824F070041868044310684460104D04
:101B30001068A8420BD01068B0F1804F07D00D4D4F
:101B40001068A84203D00C4D1068A84205D121F0BE
:101B500080015868014310688160012082F83D00CF
:101B600000BF002082F83C0000BF00BFCDE70000AE
:101B7000002C0140000400400008004010B504465D
:101B80000CB9012010BD94F83D0028B9002084F85C
:101B90003C00204600F026F8022084F83D00211D7C
:101BA000206800F051FF012084F8460000BF84F84F
:101BB0003E0001213F2001554020015541200155A3
:101BC00000BF00BF012084F842004320015544209B
:101BD00001554520015500BF012084F83D0000203B
:101BE000D0E7000008B5094A016891420DD100BF55
:101BF0000749C96941F00201054AD1611146C96925
:101C000001F00201009100BF00BF08BD00040040C8
:101C1000001002402DE9F04104460D46002700BFA8
:101C200094F83C00012802D10220BDE8F081012097
:101C300084F83C0000BF022084F83D0020688668DC
:101C400026F0770626F47F462068866028685028AC
:101C500033D00CDC202850D004DC00284BD01028D6
:101C600051D149E0302849D040284CD139E0602892
:101C70002DD0702807D0B0F5805F03D0B0F5005F9D
:101C800041D10DE041E0D5E902136A68206800F017
:101C90002EFF2068866846F077062068866034E06C
:101CA000D5E902136A68206800F021FF2068806887
:101CB00040F480402168886027E0EA68696820680D
:101CC00000F0E6FF5021206800F01CFF1DE0EA68EC
:101CD0006968206800F0EFFF6021206800F012FFC3
:101CE00013E0EA686968206800F0D2FF40212068AC
:101CF00000F008FF09E000BF00BF00BF29682068AE
:101D000000F000FF01E0012700BF00BF012084F8C0
:101D10003D0000BF002084F83C0000BF384684E747
:101D200010B586B004460020029003900490059000
:101D30000E492068884216D100BF0D48806940F0E6
:101D400004000B4988610846806900F00400019096
:101D500000BF00BFC020029002200390059002A99E
:101D60000448FEF7B7FF06B010BD000000040040B5
:101D700000100240000801402DE9F04104460D46E4
:101D80001646002700BF94F83C00012802D102202B
:101D9000BDE8F081012084F83C0000BF36B1042E7C
:101DA0001BD0082E31D00C2E5ED145E0294620688C
:101DB00000F0B2FE2068806940F008002168886168
:101DC0002068806920F004002168886120688069AB
:101DD000296908432168886148E02946206800F0A5
:101DE000CBFE2068806940F400602168886120682B
:101DF000806920F480602168886120688069296991
:101E000040EA01202168886130E02946206800F01E
:101E1000E7FE2068C06940F008002168C8612068BA
:101E2000C06920F004002168C8612068C069296980
:101E300008432168C86119E02946206800F004FFC2
:101E40002068C06940F400602168C8612068C069EA
:101E500020F480602168C8612068C069296940EA6F
:101E600001202168C86101E0012700BF00BF00BF59
:101E7000002084F83C0000BF384689E710B50446CE
:101E80000CB9012010BD94F83D0028B9002084F859
:101E90003C00204600F025F8022084F83D00211D7A
:101EA000206800F0D1FD012084F8460000BF84F8CE
:101EB0003E0001213F2001554020015541200155A0
:101EC00000BF00BF012084F8420043200155442098
:101ED00001554520015500BF012084F83D00002038
:101EE000D0E7704770B504460D4615B994F83E002A
:101EF0000BE0042D02D13F20005D06E0082D02D149
:101F00004020005D01E04120005D012801D001205A
:101F100070BD1DB9022084F83E000EE0042D03D1EF
:101F200002213F20015508E0082D03D10221402065
:101F3000015502E002214120015501222946206875
:101F400000F0C4FD19492068884201D1012000E059
:101F5000002028B12068406C40F4004021684864AB
:101F60001249206888420BD02068B0F1804F07D01A
:101F70000F492068884203D00E49206888420CD15E
:101F80002068806800F00706062E0CD020680068E4
:101F900040F001002168086005E02068006840F01A
:101FA0000100216808600020B2E70000002C014019
:101FB0000004004000080040F8B504460D461646EF
:101FC00094F8420020282DD105B10EB90120F8BDAA
:101FD000012020630020606332462946204601F03C
:101FE0000BF90746206B012819D100BF0020009093
:101FF00020680068009020684068009000BF00BF23
:1020000000BF00BF21680C3151E8001F41F01000F3
:1020100021680C3141E80002002AF3D100E00127D9
:102020003846D4E70220D2E770B504460D46204971
:10203000206888423AD11F48007833281FD008DC36
:1020400011280DD0302814D031280FD0322822D1B9
:1020500018E0342810D0362817D038281BD117E0C4
:102060004FF400511448FEF7CDFF15E0FEF749FC90
:1020700012E0FEF70EFC0FE000F0C0FE0CE000F0F6
:10208000B3FE09E0FEF748FC06E000F099FC03E02F
:1020900000F08AFC00E000BF00BF0648002101609C
:1020A0000171052201460548FFF786FF70BD00005B
:1020B000003801401000002000100140F000002016
:1020C000704700002DE9F84F044620680568206835
:1020D000C668206847694FF00009CA4605F00F0935
:1020E000B9F1000F0AD105F0200038B106F0200048
:1020F00020B1204600F083FFBDE8F88FB9F1000F52
:102100007BD007F0010018B906F49070002874D055
:1021100005F0010030B106F4807018B1606C40F039
:102120000100606405F0040030B107F0010018B14F
:10213000606C40F00200606405F0020030B107F00E
:10214000010018B1606C40F00400606405F0080004
:1021500048B106F0200010B907F0010018B1606C1A
:1021600040F008006064606C002845D005F0200055
:1021700028B106F0200010B1204600F040FF206892
:102180004069C0F3801A606C00F0080010B9BAF121
:10219000000F2CD0204600F0D9FE2068406900F0E6
:1021A000400000B300BF00BF2168143151E8001F98
:1021B00021F040002168143141E80002002AF3D1E7
:1021C00000BFE06B50B17748E16B4863E06BFEF70E
:1021D000D9FB88B1E06B416B88470DE02046FFF7E3
:1021E0006FFF09E009E02046FFF76AFF04E02046A0
:1021F000FFF766FF002060647EE7206B012877D13F
:1022000005F01000002873D006F010000028FAD066
:1022100000BF00200090206800680090206840689F
:10222000009000BF00BF2068406900F04000002817
:102230005FD0E06B006840681FFA80F8B8F1000FCB
:1022400055D0A08D404552DDA4F82E80E06B80690A
:10225000202843D000BF00BF21680C3151E8001F87
:1022600021F4807021680C3141E80002002AF3D18A
:1022700000BF00BF00BF2168143151E8001F21F0EA
:1022800001002168143141E80002002AF3D100BFA7
:1022900000BF00BF2168143151E8001F21F0400049
:1022A0002168143141E80002002AF3D100BF202048
:1022B00084F842000020206300BF00BF21680C3179
:1022C00051E8001F21F0100021680C3141E80002A4
:1022D000002AF3D100BFE06BFEF728FB0220606309
:1022E000A08DE28D801A81B22046FFF79DFE03E7A4
:1022F00042E0A08DE18D401A1FFA80F8E08DD0B346
:10230000B8F1000F37D000BF00BF21680C3151E891
:10231000001F21F4907021680C3141E80002002A6E
:10232000F3D100BF00BF00BF2168143151E8001F86
:1023300021F001002168143141E80002002AF3D1A4
:1023400000BF202084F842000020206300BF00BFAF
:1023500021680C3151E8001F21F0100021680C3178
:1023600041E80002002AF3D100BF02206063414629
:102370002046FFF759FEBFE605F0800030B106F0B9
:10238000800018B1204600F09BFFB5E605F0400044
:1023900030B106F0400018B1204600F00DFEABE66B
:1023A00000BFA9E6112E000810B504460CB90120A3
:1023B00010BDA06900B100E000BF94F8410028B949
:1023C000002084F84000204600F02AF8242084F8F9
:1023D00041002068C06820F400502168C860204691
:1023E00000F08CFE2068006920F4904021680861AC
:1023F0002068406920F02A00216848612068C06890
:1024000040F400502168C86000206064202084F8F7
:10241000410084F842000020606300BFC8E700006C
:1024200010B586B0044600200290039004900590F9
:102430002A49206888424FD100BF2948806940F46A
:102440008040274988610846806900F480400190F7
:1024500000BF00BF00BF0846806940F004008861EB
:102460000846806900F00400019000BF00BF4815D5
:102470000290022003900320059002A91948FEF75C
:1024800029FC4FF48060029000200390049002A980
:102490001448FEF71FFC14481449086000204860E7
:1024A0000021124881608021C160002101614161E9
:1024B0008161C161FEF78CFB08B1FEF71FFA00BF16
:1024C0000A48E063446200BF002211462520FEF75F
:1024D00051FF2520FEF73EFF06B010BD0038014039
:1024E000001002400008014058000240380100205E
:1024F000704770472DE9F84F04460E461746994637
:102500004FF0000A94F84100202850D106B117B9C5
:102510000120BDE8F88F00206064212084F841008C
:10252000FEF780FD8246A784E784A068B0F5805F4F
:1025300004D1206910B90025B04602E035464FF0BD
:1025400000081EE05346002280212046CDF800906E
:1025500000F0E6FE20B1202084F841000320D8E7F7
:1025600045B9B8F80000C0F308002168486008F1D8
:10257000020803E02878216848606D1CE08C401E4A
:10258000E084E08C0028DDD1534600224021204623
:10259000CDF8009000F0C4FE20B1202084F8410066
:1025A0000320B6E7202084F841000020B1E7022094
:1025B000AFE7704700BFFEE708B500BF0A484069B3
:1025C00040F00100084948610846406900F00100F8
:1025D000009000BF00BF002211460F20FEF7CAFE88
:1025E0000F20FEF7B7FE08BD0010024000B585B011
:1025F0000020019002900390049000BF3048806951
:1026000040F010002E4988610846806900F01000F3
:10261000009000BF00BF00BF0846806940F0200066
:1026200088610846806900F02000009000BF00BF6C
:1026300000BF0846806940F0040088610846806950
:1026400000F00400009000BF00BF00BF0846806992
:1026500040F0080088610846806900F0080000909A
:1026600000BF00BF012251031648FEF7D5FC00222F
:102670003C211548FEF7D0FC4FF40050019001209A
:102680000290002003900220049001A90D48FEF75B
:1026900021FB0320019000200290039001A90A4829
:1026A000FEF718FB3C2001900120029000200390CF
:1026B0000220049001A90448FEF70CFB05B000BD00
:1026C00000100240001001400008014010B50B4806
:1026D0000B4908600B484860002109488160C160CF
:1026E0004FF480410161002141618161C16101625A
:1026F000FEF79EFC08B1FEF701F910BD0054004042
:1027000054000020801A060000B58DB0002009900A
:102710000A900B900C90079008901C216846FDF7DA
:1027200018FD2448244908604720486000212248B9
:10273000816042F21071C1600021016180218161DC
:10274000FFF71CFA08B1FEF7D9F84FF48050099052
:1027500009A91948FFF75EFA08B1FEF7CFF8164845
:10276000FFF78CFB08B1FEF7C9F80020079008902E
:1027700007A91148FFF7C0F908B1FEF7BFF86020BC
:1027800000900020019002900490002269460A48BF
:10279000FFF7F2FA08B1FEF7B1F8042269460648DD
:1027A000FFF7EAFA08B1FEF7A9F80348FFF7B8FA0D
:1027B0000DB000BD00040040A800002010B50B487B
:1027C0000B4908604FF4E1304860002108488160FF
:1027D000C16001610C21416100218161C161FFF78C
:1027E000E3FD08B1FEF78AF810BD00000038014093
:1027F000F000002000BFFEE710B50446002C0DDD00
:10280000002208211548FEF707FC01220421134885
:10281000FEF702FC1248006844631DE0002C0EDA4B
:10282000012208210D48FEF7F7FB002204210B4886
:10283000FEF7F2FB60420A49096848630CE0012296
:1028400008210648FEF7E8FB012204210348FEF7B1
:10285000E3FB03480068446310BD0000000801402A
:10286000A800002010B50446002C0DDD0022102128
:102870001548FEF7D1FB012220211348FEF7CCFBBF
:102880001248006884631DE0002C0EDA012210213A
:102890000D48FEF7C1FB002220210B48FEF7BCFBD0
:1028A00060420A49096888630CE001221021064849
:1028B000FEF7B2FB012220210348FEF7ADFB0348DF
:1028C0000068846310BD000000080140A8000020DB
:1028D00010B500210D48FFF705FB04210B48FFF759
:1028E00001FB012208210A48FEF796FB0122042180
:1028F0000748FEF791FB012210210548FEF78CFBEB
:10290000012220210248FEF787FB10BDA80000200D
:102910000008014000BFFEE7704700002DE9FC41C0
:10292000FEF780FB04460F480068201A01D5BDE879
:10293000FC8104F10A000B4908600B480068FDF7B0
:1029400087FD0746884609480068FDF781FD054672
:102950002A460B4606A0CDE9007800F031FD00BF05
:10296000E5E700004C0000203C000020380000207B
:1029700025662C2025660D0A0000000008B50849D0
:102980000968C9084FF47A72B1FBF2F14143009132
:1029900000BF00BF00994A1E00920029F9D108BD6E
:1029A0000C0000207047000010B50448FFF724FF1A
:1029B00041F28830FFF756FF10BD000078ECFFFFB2
:1029C00010B541F28830FFF717FF0248FFF74AFFC2
:1029D00010BD000078ECFFFF10B5FEF74BFC10BDFA
:1029E00000B58FB0282105A8FDF7B3FB1421684678
:1029F000FDF7AFFB01200590000406900020079032
:102A00000120099002200C90C1030D914FF4E011B8
:102A10000E9105A8FEF724FE08B1FDF76FFF0F2009
:102A2000009002200190002002904FF480600390FB
:102A30000020049002216846FEF7EEFC08B1FDF785
:102A40005DFF0FB000BD704710B502681C4B984287
:102A500008D0B0F1804F05D01A4B984202D01A4BE3
:102A6000984203D122F070024B681A43144B9842EB
:102A700008D0B0F1804F05D0124B984202D0124BD3
:102A8000984203D122F44072CB681A4322F08003AB
:102A90004C6943EA040202608B68C3620B6883627C
:102AA000074B984201D10B6903630123436103691A
:102AB00003F001031BB1036923F00103036110BD9F
:102AC000002C0140000400400008004030B501F037
:102AD0001F05012404FA05F3046A9C430462046A96
:102AE00001F01F0502FA05F52C43046230BD30B534
:102AF0000C46816821F47F4142EA0325254329439E
:102B0000816030BD0A46816821F0700142F0070300
:102B1000194381607047000030B5026A056A25F0EC
:102B2000010505624368846924F0700424F00304FD
:102B30000D682C4322F002028D682A430D4DA842F5
:102B400006D100BF22F00802CD682A4322F0040219
:102B5000084DA84207D123F4807323F400734D6914
:102B60002B438D692B43436084614D68456302624A
:102B700030BD0000002C014030B5026A056A25F026
:102B8000100505624368846924F4E04424F4407429
:102B90000D6844EA052422F020028D6842EA0512FD
:102BA0000E4DA84207D100BF22F08002CD6842EA54
:102BB000051222F04002094DA84209D123F4806396
:102BC00023F400634D6943EA85038D6943EA850375
:102BD000436084614D688563026230BD002C014012
:102BE00030B5026A056A25F4807505624368C469D8
:102BF00024F0700424F003040D682C4322F40072C6
:102C00008D6842EA05220F4DA84207D100BF22F489
:102C10000062CD6842EA052222F48062094DA84292
:102C200009D123F4805323F400534D6943EA05137B
:102C30008D6943EA05134360C4614D68C563026250
:102C400030BD0000002C014030B5036A056A25F450
:102C5000805505624468C26922F4E04222F4407261
:102C60000D6842EA052223F400538D6843EA0533D8
:102C7000064DA84204D124F480444D6944EA8514E9
:102C80004460C2614D680564036230BD002C0140A0
:102C900030B50B461446026A056A25F00105056247
:102CA000816921F0F00141EA041122F00A021A437D
:102CB0008161026230BD30B50B461446026A056A76
:102CC00025F010050562816921F4704141EA043163
:102CD00022F0A00242EA03128161026230BD0000CC
:102CE0002DE9FC47FEF79EF9824637480068BAEBAB
:102CF000000001D5BDE8FC870AF1050032490860F3
:102D00000020324908603249086000242EE0314A30
:102D100002EBC40291882F4A52F83400FEF76AF998
:102D200000280CDD4FF07E502B4941F8240001466D
:102D300026480068FDF718FA2449086003E00020DF
:102D4000254941F82400601CFDF779FB064622481E
:102D500050F824103046FDF75FFA05461C4801681C
:102D60002846FDF701FA1A490860641C042CCED3EA
:102D7000002116480068FDF79BFB04D11748006846
:102D8000174908601DE011480068FDF761FB064621
:102D90000022144BFDF772FA04460D460C480068F9
:102DA000FDF756FB804622462B46FDF7D9FACDE9C2
:102DB0000001FDF760FB0A49086008460068074902
:102DC000086000BF96E70000480000204000002097
:102DD00044000020180000207C0100203C0000205E
:102DE000380000200000F03F10B541F28830FFF7B6
:102DF00003FD42F21070FFF735FD10BD10B542F231
:102E00001070FFF7F9FC41F28830FFF72BFD10BD81
:102E100070B505466C6A0020E085E0842046FFF727
:102E20004FF970BD70B506460025746A2068406988
:102E3000C0F3C01594F84100212805D125B1002028
:102E4000E084204600F0C8F820684069C0F380158F
:102E500094F84200222805D125B10020E0852046C3
:102E600000F074F8606C40F0100060642046FFF7DA
:102E700027F970BD70B505466C6A2868006800F0D7
:102E80002000002842D1E08500BF00BF21680C313E
:102E900051E8001F21F4807021680C3141E80002E4
:102EA000002AF3D100BF00BF00BF2168143151E8F0
:102EB000001F21F001002168143141E80002002ABE
:102EC000F3D100BF00BF00BF2168143151E8001FDB
:102ED00021F040002168143141E80002002AF3D1BA
:102EE00000BF202084F84200206B01280ED100BFD3
:102EF00000BF21680C3151E8001F21F0100021684B
:102F00000C3141E80002002AF3D100BF00206063C9
:102F1000206B012804D1A18D2046FFF785F802E03F
:102F20002046FFF7E5FA70BD70B505466C6A0120D2
:102F30006063206B012805D1A08D41082046FFF772
:102F400073F802E02046FFF7D4FA70BD00BF00BF5F
:102F500002680C3252E8002F22F4907102680C32A1
:102F600042E80013002BF3D100BF00BF00BF02688E
:102F7000143252E8002F22F001010268143242E8B4
:102F80000013002BF3D100BF016B01290ED100BF4C
:102F900000BF02680C3252E8002F22F010010268D4
:102FA0000C3242E80013002BF3D100BF202180F83F
:102FB000421000210163704710B504462068C068C4
:102FC00020F040002168C860202084F8410020469D
:102FD000FFF7EFFA002010BD00BF00BF02680C32FF
:102FE00052E8002F22F0C00102680C3242E80013C0
:102FF000002BF3D100BF202180F841107047F8B5B5
:10300000044694F84200222875D1A068B0F5805F8C
:103010000CD1206950B90025A66A20684068C0F329
:1030200008003080A06A801CA06215E0A56A002616
:10303000A068B0F5805F03D0A06828B9206918B9EE
:1030400020684068287004E02068406800F07F0035
:103050002870A06A401CA062E08D401E80B2E0850E
:10306000002846D12068C06820F020002168C86090
:103070002068C06820F480702168C86020684069BA
:1030800020F0010021684861202084F842000020DF
:103090006063206B012826D10020206300BF00BFA1
:1030A00021680C3151E8001F21F0100021680C311B
:1030B00041E80002002AF3D100BF2068006800F058
:1030C000100010280AD100BF00200090206800687E
:1030D000009020684068009000BF00BFA18D20468E
:1030E000FEF7A2FF02E02046FFF702FA0020F8BD3B
:1030F00001E00020FBE70220F9E7000070B504467C
:103100002168096921F44051E26811432268116184
:103110002269A1681143626941EA02052168C96810
:1031200041F20C62914329432268D16021684969C8
:1031300021F44071A2691143226851612D4A21682E
:10314000914202D1FEF744FA01E0FEF731FA00EBBA
:10315000C00101EB001162689200B1FBF2F100EBDB
:10316000C00202EB001263689B00B2FBF3F264231F
:10317000B2FBF3F202EBC20303EB0212A1EB8201FA
:10318000322202EB01116422B1FBF2F101F0F001F5
:1031900000EBC00202EB001263689B00B2FBF3F28B
:1031A0006423B2FBF3F201EB021200EBC00101EB6E
:1031B000001163689B00B1FBF3F100EBC00303EB6C
:1031C00000136668B600B3FBF6F36426B3FBF6F3B0
:1031D00003EBC30606EB0313A1EB8301322303EBDE
:1031E00001116423B1FBF3F101F00F0111442268D6
:1031F000916070BD0038014077B581B00446154636
:103200000298A062A58500206064222084F8420014
:103210002848E16B88622848E16BC8622748E16B67
:1032200008630020E16B486302AE32682368191D11
:103230002B46E06BFDF700FD00BF002000902068EA
:103240000068009020684068009000BF00BF2069BF
:1032500070B100BF00BF21680C3151E8001F41F47C
:10326000807021680C3141E80002002AF3D100BFD0
:1032700000BF00BF2168143151E8001F41F0010078
:103280002168143141E80002002AF3D100BF00BFD9
:1032900000BF2168143151E8001F41F0400021684F
:1032A000143141E80002002AF3D100BF002004B02D
:1032B00070BD0000752E0008292F0008252E00087B
:1032C000014691F84100212828D18868B0F5805F37
:1032D0000BD1086948B90A6A1088C0F308000B6866
:1032E0005860086A801C086205E00B6A581C086276
:1032F00018780B685860C88C401E80B2C88458B9D2
:103300000868C06820F080000B68D8600868C06852
:1033100040F040000B68D860002070470220FCE7B6
:103320002DE9F84304460D4617469846089E31E0BD
:10333000701C70B3FDF776FEA0EB0800B04200D819
:1033400016B90320BDE8F8832068C06800F00400C7
:10335000F8B1802D1ED0402D1CD020680068C0F32D
:10336000C000B0B100BF002000902068006800904D
:1033700020684068009000BF00BF2046FFF7E6FDD0
:103380000820606400BF002084F8400000BF0120D6
:10339000D8E7FFE7206800682840A84201D1012053
:1033A00000E00020B842C3D00020CBE710B50248AF
:1033B000FEF788FE10BD0000F000002000BFFEE711
:1033C0000FB4054B10B503A9044A029800F0F6F8B3
:1033D00010BC5DF814FB0000ED3C0008500000201C
:1033E00002480068C0F30220704700000CED00E0C6
:1033F00010B5002804DB0A07130E054A135406E033
:103400000A07140E034A00F00F031B1FD45410BD0B
:1034100000E400E018ED00E002E008C8121F08C157
:10342000002AFAD170477047002001E001C1121F45
:10343000002AFBD1704700002DE9FF5F82B0002118
:10344000DDE90430020DDDF840B0034318D044F646
:103450001050A2F2FF3242431514119801281FD0D8
:10346000A5EB0B00401C5FEA000A4FF000064E4F30
:10347000DFF83891B046504615D5CAF1000413E084
:10348000119801244AA3012801D16FEA0B01029887
:10349000119AC0E90031C0E9024206B0BDE8F09FD0
:1034A000CBF10000DFE704460021404A491842EB17
:1034B0000450CDE9001012E0E00707D032463B4649
:1034C00040464946FCF7DAFE8046894632463B468E
:1034D00010461946FCF7D2FE06460F466410002C33
:1034E000EAD1DDE90401DDE90023BAF1000F06DAD3
:1034F000FCF7C4FE42464B46FCF7C0FE05E0FCF775
:103500002FFF42464B46FCF72BFF04460E46002297
:10351000284BFDF771F903D84FF0FF30014607E063
:103520000022254B20463146FDF7A7F8FDF74CF960
:10353000102409E0002C0ADB0A220023FCF7D8FF44
:10354000039B30321A55641E50EA0102F2D1641C0A
:10355000039AC4F111031444119A012A03D00122E1
:1035600008430DD10AE0084304D000204FF0110BAE
:10357000119072E7A3EB0B056D1E0DE05B4504DDBA
:103580004FF0000205F1010504E003DA4FF00002FC
:10359000A5F10105002AECD002981199C0E9023189
:1035A000C0E9004579E70000000014400000F03F4A
:1035B000300000000000F0430000E03F2DE9FF4F25
:1035C00095B09B468946064600250FE2252877D10F
:1035D00000242746F84A0121059400E0044316F828
:1035E000013F203B01FA03F01042F7D130782A283E
:1035F00011D06FF02F033078A0F13002092A16D8CD
:10360000059A44F0020402EB820203EB42021044EA
:10361000761C0590EFE759F8042B0592002A03DA8F
:10362000504244F40054059044F00204761C307873
:103630002E2816D116F8010F44F004042A280DD0C4
:103640006FF02F023078A0F13003092B09D807EB77
:10365000870302EB4303C718761CF3E759F8047B92
:10366000761C30786C280FD006DC4C2817D06828E0
:103670000DD06A2814D104E0742810D07A280FD114
:103680000DE044F400140AE044F4801401E044F432
:1036900040147278824202D104F58014761C761CA4
:1036A000307866280BD013DC582877D009DC002846
:1036B00075D04528F6D04628F4D047281AD19DE188
:1036C00018E0632835D0642879D0652812D195E1B7
:1036D000702873D008DC6728F1D069286FD06E2875
:1036E0000DD06F2806D1B5E073282CD0752875D081
:1036F000782874D05A46179990476D1C75E1C4F329
:103700000250022809D003280DD0D9F8001004284F
:103710000DD00D6009F1040967E1D9F80010EA172E
:10372000C1E90052F6E7D9F800100D80F2E70D70FC
:10373000F0E719F8041B8DF8001000208DF8010047
:10374000EA46012003E059F804AB4FF0FF3061076F
:103750004FF0000102D40DE008F101018846B942A2
:103760000FDA8045F8DB1AF808100029F4D108E0D8
:1037700008F1010188468142FADB1AF80810002995
:10378000F6D105985B46A0EB080721463846179A04
:1037900000F094FA284400EB080507E04DE029E129
:1037A0000DE01AF8010B5A4617999047B8F1010835
:1037B000F7D25B4621463846179A13E142E00A22C7
:1037C0000092C4F302524FF0000A022A08D059F8BE
:1037D00004CB032A4FEAEC710AD00DE029E02AE07D
:1037E00009F1070121F00702F2E802C1914609E060
:1037F0000FFA8CFC4FEAEC71042A03D14FFA8CFCCF
:103800004FEAEC71002907DA0A460021DCF1000CCE
:1038100061EB02012D2202E0220504D52B228DF856
:103820000420012203E0E20701D02022F7E79046BE
:1038300059E00A2102E010220DE010214FF0000AA9
:1038400000910BE010224FF0000A44F00404082716
:10385000009203E008224FF0000A0092C4F30252E3
:10386000022A05D059F804CB0021032A08D009E028
:1038700009F1070121F00702F2E802C1914605E0D3
:103880001FFA8CFC042A01D10CF0FF0C4FF0000849
:10389000220728D5702806D0009B83F0100353EA36
:1038A0000A0305D00EE040228DF80420012208E032
:1038B0005CEA010206D030228DF804208DF8050064
:1038C00002229046009B83F0080353EA0A030AD1C0
:1038D0005CEA010201D1620705D530228DF804208F
:1038E0004FF001087F1E582804D034A003900EA882
:1038F00002900DE036A0F9E753466046009AFCF7C7
:10390000F7FD84460398825C0298401E0290027084
:103910005CEA0100F0D1029806A9081A00F1200A19
:10392000600702D524F4803400E00127574502DD0A
:10393000A7EB0A0000E0002000EB0A0100900598C8
:103940004144401A0590E00306D45B462146179A8D
:10395000059800F0B3F90544002706E001A85A468F
:10396000C05D179990476D1C7F1C4745F6DBE0034F
:103970000CD55B462146179A059800F09FF905443F
:1039800004E030205A46179990476D1C0099481E54
:1039900000900029F5DC08E0029802995A46007868
:1039A000491C0291179990476D1CBAF10001AAF1C8
:1039B000010AF1DC65E100000928010030313233F1
:1039C000343536373839616263646566000000005B
:1039D0003031323334353637383941424344454645
:1039E0000000000000F058F90544761C30780028EB
:1039F0007FF4ECAD19B02846BDE8F08F620700D423
:103A0000062709F1070222F0070CFCE80223E14631
:103A100003F000485FEA080C02D00FF2702C0DE0B2
:103A20005FEA045C02D50FF2682C07E05FEAC47C11
:103A300002D00FF2602C01E0AFF2700C4FF0FF38B3
:103A400023F00043CDF850C065280CD006DC452893
:103A500009D046281DD047283DD13DE0662818D022
:103A600067287ED138E00021112F01DB112000E012
:103A7000781CCDE9000106A90EA8FFF7DDFCDDE901
:103A80000F010E9A03910021009207F1010A04919F
:103A90004DE04FF000400097CDE9011006A90EA8B7
:103AA000FFF7CAFCDDE90F0203920E9B1199002279
:103AB000DDF80CA00093049211B9791C00EB010A07
:103AC000B7EB0A0004D4C0F1FF3007F1010A0490FB
:103AD000AAEB0700019044E0012F00DA0127002142
:103AE000112F01DD112000E03846CDE9000106A9C3
:103AF0000EA8FFF7A1FCDDE90F010E9A039100214A
:103B000004910092BA4621070CD40399514500DA7A
:103B10008A46BAF1010F05DD009AAAF10101515C54
:103B2000302908D0B84202DA10F1040F06DA012178
:103B3000CDE9011015E0AAF10101E9E7002805DC53
:103B4000049901440491AAEB000102E0411C514593
:103B500000DD8A460499401A401C01904FF0004055
:103B60000290200704D40198504501DBCDF8048071
:103B700000208DF84F0002980DF14F07B0F1004F73
:103B800025D02B200E9002984FF0020800280CDA66
:103B9000404202902D200E9007E00A210298FCF787
:103BA00091FC3031029007F8011DB8F10001A8F135
:103BB0000108F2DC02980028EFD1791E0E980870F7
:103BC000307800F0200040F0450007F8020D12A800
:103BD000C01B00F107081498007800B1012000EB29
:103BE0000A01019801EBE07105984144401A401E1A
:103BF0000590E00306D45B462146179A059800F02D
:103C00005DF805441498007818B15A461799904702
:103C10006D1CE00324D55B462146179A059800F0F9
:103C20004DF805441CE00498002807DBDDE903019A
:103C3000884203DD0098405C179901E01799302015
:103C40005A469047049805F10105401C04900198DC
:103C5000401E019004D12E205A46179990476D1CA2
:103C6000BAF10001AAF1010ADDDC05E017F8010B49
:103C70005A46179990476D1CB8F10001A8F1010848
:103C8000F4DC5B462146179A0598ABE62D00000050
:103C90002B000000200000002DE9F0410446002523
:103CA0001E461746880404D405E039462020B04754
:103CB0006D1C641EF9D52846BDE8F0812DE9F04160
:103CC000044600251E469046C80301D5302700E073
:103CD0002027880404D505E041463846B0476D1CCE
:103CE000641EF9D52846BDE8F081000013B50C46E6
:103CF0004FF0FF33012269460248FEF7FBFB0098B4
:103D00001CBD0000F0000020FDF7C0FAFEF768FEC1
:103D1000FEF76CFCFEF750FCFEF750FDFEF7F4FCDE
:103D2000FEF7D4FCFEF7D4FDFCF7DCFD03E0FEF764
:103D3000D7FFFEF7F3FDFAE70203040506070809BB
:103D40000A0B0C0D0E0F1010010200000000000005
:103D50000000010203040607080900000000010238
:103D600003040000843D000800000020540000000F
:103D700018340008D83D0008540000203C0500001D
:103D800028340008000000001000000001000000BE
:103D900000127A000000000000000000000801404E
:103DA0000200000000080140010000000010014076
:103DB00000800000001001400040000000000000F2
:103DC0000000204000000000000000000000000093
:083DD0000000000000000000EB
:04000005080000ED02
:00000001FF
